{
  "_format": "hh-sol-artifact-1",
  "contractName": "MyEpicGame",
  "sourceName": "contracts/MyEpicGame.sol",
  "abi": [
    {
      "inputs": [
        {
          "internalType": "string[]",
          "name": "characterNames",
          "type": "string[]"
        },
        {
          "internalType": "string[]",
          "name": "characterImageURIs",
          "type": "string[]"
        },
        {
          "internalType": "uint256[]",
          "name": "characterHp",
          "type": "uint256[]"
        },
        {
          "internalType": "uint256[]",
          "name": "characterAttackDmg",
          "type": "uint256[]"
        },
        {
          "internalType": "uint256[]",
          "name": "characterLvl",
          "type": "uint256[]"
        },
        {
          "internalType": "string",
          "name": "bossName",
          "type": "string"
        },
        {
          "internalType": "string",
          "name": "bossImageURI",
          "type": "string"
        },
        {
          "internalType": "uint256",
          "name": "bossHp",
          "type": "uint256"
        },
        {
          "internalType": "uint256",
          "name": "bossAttackDamage",
          "type": "uint256"
        }
      ],
      "stateMutability": "nonpayable",
      "type": "constructor"
    },
    {
      "anonymous": false,
      "inputs": [
        {
          "indexed": true,
          "internalType": "address",
          "name": "owner",
          "type": "address"
        },
        {
          "indexed": true,
          "internalType": "address",
          "name": "approved",
          "type": "address"
        },
        {
          "indexed": true,
          "internalType": "uint256",
          "name": "tokenId",
          "type": "uint256"
        }
      ],
      "name": "Approval",
      "type": "event"
    },
    {
      "anonymous": false,
      "inputs": [
        {
          "indexed": true,
          "internalType": "address",
          "name": "owner",
          "type": "address"
        },
        {
          "indexed": true,
          "internalType": "address",
          "name": "operator",
          "type": "address"
        },
        {
          "indexed": false,
          "internalType": "bool",
          "name": "approved",
          "type": "bool"
        }
      ],
      "name": "ApprovalForAll",
      "type": "event"
    },
    {
      "anonymous": false,
      "inputs": [
        {
          "indexed": false,
          "internalType": "uint256",
          "name": "newBossHp",
          "type": "uint256"
        },
        {
          "indexed": false,
          "internalType": "uint256",
          "name": "newPlayerHp",
          "type": "uint256"
        }
      ],
      "name": "AttackComplete",
      "type": "event"
    },
    {
      "anonymous": false,
      "inputs": [
        {
          "indexed": false,
          "internalType": "address",
          "name": "sender",
          "type": "address"
        },
        {
          "indexed": false,
          "internalType": "uint256",
          "name": "tokenId",
          "type": "uint256"
        },
        {
          "indexed": false,
          "internalType": "uint256",
          "name": "characterIndex",
          "type": "uint256"
        }
      ],
      "name": "CharacterNFTMinted",
      "type": "event"
    },
    {
      "anonymous": false,
      "inputs": [
        {
          "indexed": true,
          "internalType": "address",
          "name": "from",
          "type": "address"
        },
        {
          "indexed": true,
          "internalType": "address",
          "name": "to",
          "type": "address"
        },
        {
          "indexed": true,
          "internalType": "uint256",
          "name": "tokenId",
          "type": "uint256"
        }
      ],
      "name": "Transfer",
      "type": "event"
    },
    {
      "inputs": [
        {
          "internalType": "address",
          "name": "to",
          "type": "address"
        },
        {
          "internalType": "uint256",
          "name": "tokenId",
          "type": "uint256"
        }
      ],
      "name": "approve",
      "outputs": [],
      "stateMutability": "nonpayable",
      "type": "function"
    },
    {
      "inputs": [],
      "name": "attackBoss",
      "outputs": [],
      "stateMutability": "nonpayable",
      "type": "function"
    },
    {
      "inputs": [
        {
          "internalType": "address",
          "name": "owner",
          "type": "address"
        }
      ],
      "name": "balanceOf",
      "outputs": [
        {
          "internalType": "uint256",
          "name": "",
          "type": "uint256"
        }
      ],
      "stateMutability": "view",
      "type": "function"
    },
    {
      "inputs": [],
      "name": "bigBoss",
      "outputs": [
        {
          "internalType": "string",
          "name": "name",
          "type": "string"
        },
        {
          "internalType": "string",
          "name": "imageURI",
          "type": "string"
        },
        {
          "internalType": "uint256",
          "name": "hp",
          "type": "uint256"
        },
        {
          "internalType": "uint256",
          "name": "maxHp",
          "type": "uint256"
        },
        {
          "internalType": "uint256",
          "name": "attackDamage",
          "type": "uint256"
        }
      ],
      "stateMutability": "view",
      "type": "function"
    },
    {
      "inputs": [],
      "name": "checkIfUserhasNFT",
      "outputs": [
        {
          "components": [
            {
              "internalType": "uint256",
              "name": "characterIndex",
              "type": "uint256"
            },
            {
              "internalType": "string",
              "name": "name",
              "type": "string"
            },
            {
              "internalType": "string",
              "name": "imageURI",
              "type": "string"
            },
            {
              "internalType": "uint256",
              "name": "hp",
              "type": "uint256"
            },
            {
              "internalType": "uint256",
              "name": "maxHp",
              "type": "uint256"
            },
            {
              "internalType": "uint256",
              "name": "attackDamage",
              "type": "uint256"
            },
            {
              "internalType": "uint256",
              "name": "lvl",
              "type": "uint256"
            }
          ],
          "internalType": "struct MyEpicGame.CharacterAttributes",
          "name": "",
          "type": "tuple"
        }
      ],
      "stateMutability": "view",
      "type": "function"
    },
    {
      "inputs": [],
      "name": "getAllDefaultCharacters",
      "outputs": [
        {
          "components": [
            {
              "internalType": "uint256",
              "name": "characterIndex",
              "type": "uint256"
            },
            {
              "internalType": "string",
              "name": "name",
              "type": "string"
            },
            {
              "internalType": "string",
              "name": "imageURI",
              "type": "string"
            },
            {
              "internalType": "uint256",
              "name": "hp",
              "type": "uint256"
            },
            {
              "internalType": "uint256",
              "name": "maxHp",
              "type": "uint256"
            },
            {
              "internalType": "uint256",
              "name": "attackDamage",
              "type": "uint256"
            },
            {
              "internalType": "uint256",
              "name": "lvl",
              "type": "uint256"
            }
          ],
          "internalType": "struct MyEpicGame.CharacterAttributes[]",
          "name": "",
          "type": "tuple[]"
        }
      ],
      "stateMutability": "view",
      "type": "function"
    },
    {
      "inputs": [
        {
          "internalType": "uint256",
          "name": "tokenId",
          "type": "uint256"
        }
      ],
      "name": "getApproved",
      "outputs": [
        {
          "internalType": "address",
          "name": "",
          "type": "address"
        }
      ],
      "stateMutability": "view",
      "type": "function"
    },
    {
      "inputs": [],
      "name": "getBigBoss",
      "outputs": [
        {
          "components": [
            {
              "internalType": "string",
              "name": "name",
              "type": "string"
            },
            {
              "internalType": "string",
              "name": "imageURI",
              "type": "string"
            },
            {
              "internalType": "uint256",
              "name": "hp",
              "type": "uint256"
            },
            {
              "internalType": "uint256",
              "name": "maxHp",
              "type": "uint256"
            },
            {
              "internalType": "uint256",
              "name": "attackDamage",
              "type": "uint256"
            }
          ],
          "internalType": "struct MyEpicGame.BigBoss",
          "name": "",
          "type": "tuple"
        }
      ],
      "stateMutability": "view",
      "type": "function"
    },
    {
      "inputs": [
        {
          "internalType": "address",
          "name": "owner",
          "type": "address"
        },
        {
          "internalType": "address",
          "name": "operator",
          "type": "address"
        }
      ],
      "name": "isApprovedForAll",
      "outputs": [
        {
          "internalType": "bool",
          "name": "",
          "type": "bool"
        }
      ],
      "stateMutability": "view",
      "type": "function"
    },
    {
      "inputs": [
        {
          "internalType": "uint256",
          "name": "",
          "type": "uint256"
        }
      ],
      "name": "lvlNameMap",
      "outputs": [
        {
          "internalType": "string",
          "name": "",
          "type": "string"
        }
      ],
      "stateMutability": "view",
      "type": "function"
    },
    {
      "inputs": [
        {
          "internalType": "uint256",
          "name": "_characterIndex",
          "type": "uint256"
        }
      ],
      "name": "mintCharacterNFT",
      "outputs": [],
      "stateMutability": "nonpayable",
      "type": "function"
    },
    {
      "inputs": [],
      "name": "name",
      "outputs": [
        {
          "internalType": "string",
          "name": "",
          "type": "string"
        }
      ],
      "stateMutability": "view",
      "type": "function"
    },
    {
      "inputs": [
        {
          "internalType": "uint256",
          "name": "",
          "type": "uint256"
        }
      ],
      "name": "nftHolderAttributes",
      "outputs": [
        {
          "internalType": "uint256",
          "name": "characterIndex",
          "type": "uint256"
        },
        {
          "internalType": "string",
          "name": "name",
          "type": "string"
        },
        {
          "internalType": "string",
          "name": "imageURI",
          "type": "string"
        },
        {
          "internalType": "uint256",
          "name": "hp",
          "type": "uint256"
        },
        {
          "internalType": "uint256",
          "name": "maxHp",
          "type": "uint256"
        },
        {
          "internalType": "uint256",
          "name": "attackDamage",
          "type": "uint256"
        },
        {
          "internalType": "uint256",
          "name": "lvl",
          "type": "uint256"
        }
      ],
      "stateMutability": "view",
      "type": "function"
    },
    {
      "inputs": [
        {
          "internalType": "address",
          "name": "",
          "type": "address"
        }
      ],
      "name": "nftHolders",
      "outputs": [
        {
          "internalType": "uint256",
          "name": "",
          "type": "uint256"
        }
      ],
      "stateMutability": "view",
      "type": "function"
    },
    {
      "inputs": [
        {
          "internalType": "uint256",
          "name": "tokenId",
          "type": "uint256"
        }
      ],
      "name": "ownerOf",
      "outputs": [
        {
          "internalType": "address",
          "name": "",
          "type": "address"
        }
      ],
      "stateMutability": "view",
      "type": "function"
    },
    {
      "inputs": [
        {
          "internalType": "address",
          "name": "from",
          "type": "address"
        },
        {
          "internalType": "address",
          "name": "to",
          "type": "address"
        },
        {
          "internalType": "uint256",
          "name": "tokenId",
          "type": "uint256"
        }
      ],
      "name": "safeTransferFrom",
      "outputs": [],
      "stateMutability": "nonpayable",
      "type": "function"
    },
    {
      "inputs": [
        {
          "internalType": "address",
          "name": "from",
          "type": "address"
        },
        {
          "internalType": "address",
          "name": "to",
          "type": "address"
        },
        {
          "internalType": "uint256",
          "name": "tokenId",
          "type": "uint256"
        },
        {
          "internalType": "bytes",
          "name": "_data",
          "type": "bytes"
        }
      ],
      "name": "safeTransferFrom",
      "outputs": [],
      "stateMutability": "nonpayable",
      "type": "function"
    },
    {
      "inputs": [
        {
          "internalType": "address",
          "name": "operator",
          "type": "address"
        },
        {
          "internalType": "bool",
          "name": "approved",
          "type": "bool"
        }
      ],
      "name": "setApprovalForAll",
      "outputs": [],
      "stateMutability": "nonpayable",
      "type": "function"
    },
    {
      "inputs": [
        {
          "internalType": "bytes4",
          "name": "interfaceId",
          "type": "bytes4"
        }
      ],
      "name": "supportsInterface",
      "outputs": [
        {
          "internalType": "bool",
          "name": "",
          "type": "bool"
        }
      ],
      "stateMutability": "view",
      "type": "function"
    },
    {
      "inputs": [],
      "name": "symbol",
      "outputs": [
        {
          "internalType": "string",
          "name": "",
          "type": "string"
        }
      ],
      "stateMutability": "view",
      "type": "function"
    },
    {
      "inputs": [
        {
          "internalType": "uint256",
          "name": "_tokenId",
          "type": "uint256"
        }
      ],
      "name": "tokenURI",
      "outputs": [
        {
          "internalType": "string",
          "name": "",
          "type": "string"
        }
      ],
      "stateMutability": "view",
      "type": "function"
    },
    {
      "inputs": [
        {
          "internalType": "address",
          "name": "from",
          "type": "address"
        },
        {
          "internalType": "address",
          "name": "to",
          "type": "address"
        },
        {
          "internalType": "uint256",
          "name": "tokenId",
          "type": "uint256"
        }
      ],
      "name": "transferFrom",
      "outputs": [],
      "stateMutability": "nonpayable",
      "type": "function"
    }
  ],
  "bytecode": "0x60806040523480156200001157600080fd5b5060405162005e4438038062005e44833981810160405281019062000037919062000d21565b6040518060400160405280600781526020017f446967696d6f6e000000000000000000000000000000000000000000000000008152506040518060400160405280600481526020017f444d4f4e000000000000000000000000000000000000000000000000000000008152508160009080519060200190620000bb92919062000a89565b508060019080519060200190620000d492919062000a89565b5050506040518060a0016040528085815260200184815260200183815260200183815260200182815250600b60008201518160000190805190602001906200011e92919062000a89565b5060208201518160010190805190602001906200013d92919062000a89565b50604082015181600201556060820151816003015560808201518160040155905050620002c06040518060600160405280602a815260200162005e1a602a9139600b60000180546200018f90620010d3565b80601f0160208091040260200160405190810160405280929190818152602001828054620001bd90620010d3565b80156200020e5780601f10620001e2576101008083540402835291602001916200020e565b820191906000526020600020905b815481529060010190602001808311620001f057829003601f168201915b5050505050600b60020154600b60010180546200022b90620010d3565b80601f01602080910402602001604051908101604052809291908181526020018280546200025990620010d3565b8015620002aa5780601f106200027e57610100808354040283529160200191620002aa565b820191906000526020600020905b8154815290600101906020018083116200028c57829003601f168201915b50505050506200099e60201b62001dd71760201c565b6040518060400160405280600481526020017f4261627900000000000000000000000000000000000000000000000000000000815250600a60006001815260200190815260200160002090805190602001906200031f92919062000a89565b506040518060400160405280600b81526020017f496e2d747261696e696e67000000000000000000000000000000000000000000815250600a60006002815260200190815260200160002090805190602001906200037f92919062000a89565b506040518060400160405280600681526020017f526f6f6b69650000000000000000000000000000000000000000000000000000815250600a6000600381526020019081526020016000209080519060200190620003df92919062000a89565b506040518060400160405280600881526020017f4368616d70696f6e000000000000000000000000000000000000000000000000815250600a60006004815260200190815260200160002090805190602001906200043f92919062000a89565b506040518060400160405280600881526020017f556c74696d617465000000000000000000000000000000000000000000000000815250600a60006005815260200190815260200160002090805190602001906200049f92919062000a89565b506040518060400160405280600481526020017f4d65676100000000000000000000000000000000000000000000000000000000815250600a6000600681526020019081526020016000209080519060200190620004ff92919062000a89565b5060005b8951811015620009775760076040518060e001604052808381526020018c84815181106200055a577f4e487b7100000000000000000000000000000000000000000000000000000000600052603260045260246000fd5b602002602001015181526020018b8481518110620005a1577f4e487b7100000000000000000000000000000000000000000000000000000000600052603260045260246000fd5b602002602001015181526020018a8481518110620005e8577f4e487b7100000000000000000000000000000000000000000000000000000000600052603260045260246000fd5b602002602001015181526020018a84815181106200062f577f4e487b7100000000000000000000000000000000000000000000000000000000600052603260045260246000fd5b6020026020010151815260200189848151811062000676577f4e487b7100000000000000000000000000000000000000000000000000000000600052603260045260246000fd5b60200260200101518152602001888481518110620006bd577f4e487b7100000000000000000000000000000000000000000000000000000000600052603260045260246000fd5b602002602001015181525090806001815401808255809150506001900390600052602060002090600702016000909190919091506000820151816000015560208201518160010190805190602001906200071992919062000a89565b5060408201518160020190805190602001906200073892919062000a89565b50606082015181600301556080820151816004015560a0820151816005015560c082015181600601555050600060078281548110620007a0577f4e487b7100000000000000000000000000000000000000000000000000000000600052603260045260246000fd5b90600052602060002090600702016040518060e001604052908160008201548152602001600182018054620007d590620010d3565b80601f01602080910402602001604051908101604052809291908181526020018280546200080390620010d3565b8015620008545780601f10620008285761010080835404028352916020019162000854565b820191906000526020600020905b8154815290600101906020018083116200083657829003601f168201915b505050505081526020016002820180546200086f90620010d3565b80601f01602080910402602001604051908101604052809291908181526020018280546200089d90620010d3565b8015620008ee5780601f10620008c257610100808354040283529160200191620008ee565b820191906000526020600020905b815481529060010190602001808311620008d057829003601f168201915b5050505050815260200160038201548152602001600482015481526020016005820154815260200160068201548152505090506200095f60405180606001604052806025815260200162005df5602591398260200151836060015184604001516200099e60201b62001dd71760201c565b506001816200096f919062001036565b905062000503565b506200098f600662000a4a60201b62001e791760201c565b505050505050505050620011f7565b62000a4484848484604051602401620009bb949392919062000efb565b6040516020818303038152906040527f8d142cdd000000000000000000000000000000000000000000000000000000007bffffffffffffffffffffffffffffffffffffffffffffffffffffffff19166020820180517bffffffffffffffffffffffffffffffffffffffffffffffffffffffff838183161783525050505062000a6060201b60201c565b50505050565b6001816000016000828254019250508190555050565b60008151905060006a636f6e736f6c652e6c6f679050602083016000808483855afa5050505050565b82805462000a9790620010d3565b90600052602060002090601f01602090048101928262000abb576000855562000b07565b82601f1062000ad657805160ff191683800117855562000b07565b8280016001018555821562000b07579182015b8281111562000b0657825182559160200191906001019062000ae9565b5b50905062000b16919062000b1a565b5090565b5b8082111562000b3557600081600090555060010162000b1b565b5090565b600062000b5062000b4a8462000f86565b62000f5d565b9050808382526020820190508285602086028201111562000b7057600080fd5b60005b8581101562000bbf57815167ffffffffffffffff81111562000b9457600080fd5b80860162000ba3898262000cdd565b8552602085019450602084019350505060018101905062000b73565b5050509392505050565b600062000be062000bda8462000fb5565b62000f5d565b9050808382526020820190508285602086028201111562000c0057600080fd5b60005b8581101562000c34578162000c19888262000d0a565b84526020840193506020830192505060018101905062000c03565b5050509392505050565b600062000c5562000c4f8462000fe4565b62000f5d565b90508281526020810184848401111562000c6e57600080fd5b62000c7b8482856200109d565b509392505050565b600082601f83011262000c9557600080fd5b815162000ca784826020860162000b39565b91505092915050565b600082601f83011262000cc257600080fd5b815162000cd484826020860162000bc9565b91505092915050565b600082601f83011262000cef57600080fd5b815162000d0184826020860162000c3e565b91505092915050565b60008151905062000d1b81620011dd565b92915050565b60008060008060008060008060006101208a8c03121562000d4157600080fd5b60008a015167ffffffffffffffff81111562000d5c57600080fd5b62000d6a8c828d0162000c83565b99505060208a015167ffffffffffffffff81111562000d8857600080fd5b62000d968c828d0162000c83565b98505060408a015167ffffffffffffffff81111562000db457600080fd5b62000dc28c828d0162000cb0565b97505060608a015167ffffffffffffffff81111562000de057600080fd5b62000dee8c828d0162000cb0565b96505060808a015167ffffffffffffffff81111562000e0c57600080fd5b62000e1a8c828d0162000cb0565b95505060a08a015167ffffffffffffffff81111562000e3857600080fd5b62000e468c828d0162000cdd565b94505060c08a015167ffffffffffffffff81111562000e6457600080fd5b62000e728c828d0162000cdd565b93505060e062000e858c828d0162000d0a565b92505061010062000e998c828d0162000d0a565b9150509295985092959850929598565b600062000eb6826200101a565b62000ec2818562001025565b935062000ed48185602086016200109d565b62000edf81620011cc565b840191505092915050565b62000ef58162001093565b82525050565b6000608082019050818103600083015262000f17818762000ea9565b9050818103602083015262000f2d818662000ea9565b905062000f3e604083018562000eea565b818103606083015262000f52818462000ea9565b905095945050505050565b600062000f6962000f7c565b905062000f77828262001109565b919050565b6000604051905090565b600067ffffffffffffffff82111562000fa45762000fa36200119d565b5b602082029050602081019050919050565b600067ffffffffffffffff82111562000fd35762000fd26200119d565b5b602082029050602081019050919050565b600067ffffffffffffffff8211156200100257620010016200119d565b5b6200100d82620011cc565b9050602081019050919050565b600081519050919050565b600082825260208201905092915050565b6000620010438262001093565b9150620010508362001093565b9250827fffffffffffffffffffffffffffffffffffffffffffffffffffffffffffffffff038211156200108857620010876200113f565b5b828201905092915050565b6000819050919050565b60005b83811015620010bd578082015181840152602081019050620010a0565b83811115620010cd576000848401525b50505050565b60006002820490506001821680620010ec57607f821691505b602082108114156200110357620011026200116e565b5b50919050565b6200111482620011cc565b810181811067ffffffffffffffff821117156200113657620011356200119d565b5b80604052505050565b7f4e487b7100000000000000000000000000000000000000000000000000000000600052601160045260246000fd5b7f4e487b7100000000000000000000000000000000000000000000000000000000600052602260045260246000fd5b7f4e487b7100000000000000000000000000000000000000000000000000000000600052604160045260246000fd5b6000601f19601f8301169050919050565b620011e88162001093565b8114620011f457600080fd5b50565b614bee80620012076000396000f3fe608060405234801561001057600080fd5b50600436106101425760003560e01c80637df124a1116100b8578063b88d4fde1161007c578063b88d4fde146103a7578063b953084e146103c3578063c87b56dd146103e1578063d4f24c5b14610411578063e985e9c51461041b578063f8b81ef71461044b57610142565b80637df124a1146102e557806395d89b411461031557806398da4c9514610333578063a22cb46514610369578063a9c326791461038557610142565b8063095ea7b31161010a578063095ea7b314610201578063147ce58c1461021d57806323b872dd1461024d57806342842e0e146102695780636352211e1461028557806370a08231146102b557610142565b806301ffc9a714610147578063032cc54f146101775780630665f9611461019557806306fdde03146101b3578063081812fc146101d1575b600080fd5b610161600480360381019061015c9190613225565b610467565b60405161016e9190613aeb565b60405180910390f35b61017f610549565b60405161018c9190613ea6565b60405180910390f35b61019d61072b565b6040516101aa9190613e84565b60405180910390f35b6101bb610887565b6040516101c89190613b06565b60405180910390f35b6101eb60048036038101906101e69190613277565b610919565b6040516101f89190613a2b565b60405180910390f35b61021b600480360381019061021691906131e9565b61099e565b005b61023760048036038101906102329190613277565b610ab6565b6040516102449190613b06565b60405180910390f35b610267600480360381019061026291906130e3565b610b56565b005b610283600480360381019061027e91906130e3565b610bb6565b005b61029f600480360381019061029a9190613277565b610bd6565b6040516102ac9190613a2b565b60405180910390f35b6102cf60048036038101906102ca919061307e565b610c88565b6040516102dc9190613ec8565b60405180910390f35b6102ff60048036038101906102fa919061307e565b610d40565b60405161030c9190613ec8565b60405180910390f35b61031d610d58565b60405161032a9190613b06565b60405180910390f35b61034d60048036038101906103489190613277565b610dea565b6040516103609796959493929190613ee3565b60405180910390f35b610383600480360381019061037e91906131ad565b610f3c565b005b61038d610f52565b60405161039e959493929190613bd5565b60405180910390f35b6103c160048036038101906103bc9190613132565b611086565b005b6103cb6110e8565b6040516103d89190613ac9565b60405180910390f35b6103fb60048036038101906103f69190613277565b61129d565b6040516104089190613b06565b60405180910390f35b610419611569565b005b610435600480360381019061043091906130a7565b6118f4565b6040516104429190613aeb565b60405180910390f35b61046560048036038101906104609190613277565b611988565b005b60007f80ac58cd000000000000000000000000000000000000000000000000000000007bffffffffffffffffffffffffffffffffffffffffffffffffffffffff1916827bffffffffffffffffffffffffffffffffffffffffffffffffffffffff1916148061053257507f5b5e139f000000000000000000000000000000000000000000000000000000007bffffffffffffffffffffffffffffffffffffffffffffffffffffffff1916827bffffffffffffffffffffffffffffffffffffffffffffffffffffffff1916145b80610542575061054182611e8f565b5b9050919050565b610551612e9e565b6000600960003373ffffffffffffffffffffffffffffffffffffffff1673ffffffffffffffffffffffffffffffffffffffff168152602001908152602001600020549050600081111561071a57600860008281526020019081526020016000206040518060e0016040529081600082015481526020016001820180546105d690614237565b80601f016020809104026020016040519081016040528092919081815260200182805461060290614237565b801561064f5780601f106106245761010080835404028352916020019161064f565b820191906000526020600020905b81548152906001019060200180831161063257829003601f168201915b5050505050815260200160028201805461066890614237565b80601f016020809104026020016040519081016040528092919081815260200182805461069490614237565b80156106e15780601f106106b6576101008083540402835291602001916106e1565b820191906000526020600020905b8154815290600101906020018083116106c457829003601f168201915b50505050508152602001600382015481526020016004820154815260200160058201548152602001600682015481525050915050610728565b610722612e9e565b80925050505b90565b610733612edb565b600b6040518060a001604052908160008201805461075090614237565b80601f016020809104026020016040519081016040528092919081815260200182805461077c90614237565b80156107c95780601f1061079e576101008083540402835291602001916107c9565b820191906000526020600020905b8154815290600101906020018083116107ac57829003601f168201915b505050505081526020016001820180546107e290614237565b80601f016020809104026020016040519081016040528092919081815260200182805461080e90614237565b801561085b5780601f106108305761010080835404028352916020019161085b565b820191906000526020600020905b81548152906001019060200180831161083e57829003601f168201915b505050505081526020016002820154815260200160038201548152602001600482015481525050905090565b60606000805461089690614237565b80601f01602080910402602001604051908101604052809291908181526020018280546108c290614237565b801561090f5780601f106108e45761010080835404028352916020019161090f565b820191906000526020600020905b8154815290600101906020018083116108f257829003601f168201915b5050505050905090565b600061092482611ef9565b610963576040517f08c379a000000000000000000000000000000000000000000000000000000000815260040161095a90613e04565b60405180910390fd5b6004600083815260200190815260200160002060009054906101000a900473ffffffffffffffffffffffffffffffffffffffff169050919050565b60006109a982610bd6565b90508073ffffffffffffffffffffffffffffffffffffffff168373ffffffffffffffffffffffffffffffffffffffff161415610a1a576040517f08c379a0000000000000000000000000000000000000000000000000000000008152600401610a1190613e44565b60405180910390fd5b8073ffffffffffffffffffffffffffffffffffffffff16610a39611f65565b73ffffffffffffffffffffffffffffffffffffffff161480610a685750610a6781610a62611f65565b6118f4565b5b610aa7576040517f08c379a0000000000000000000000000000000000000000000000000000000008152600401610a9e90613d44565b60405180910390fd5b610ab18383611f6d565b505050565b600a6020528060005260406000206000915090508054610ad590614237565b80601f0160208091040260200160405190810160405280929190818152602001828054610b0190614237565b8015610b4e5780601f10610b2357610100808354040283529160200191610b4e565b820191906000526020600020905b815481529060010190602001808311610b3157829003601f168201915b505050505081565b610b67610b61611f65565b82612026565b610ba6576040517f08c379a0000000000000000000000000000000000000000000000000000000008152600401610b9d90613e64565b60405180910390fd5b610bb1838383612104565b505050565b610bd183838360405180602001604052806000815250611086565b505050565b6000806002600084815260200190815260200160002060009054906101000a900473ffffffffffffffffffffffffffffffffffffffff169050600073ffffffffffffffffffffffffffffffffffffffff168173ffffffffffffffffffffffffffffffffffffffff161415610c7f576040517f08c379a0000000000000000000000000000000000000000000000000000000008152600401610c7690613d84565b60405180910390fd5b80915050919050565b60008073ffffffffffffffffffffffffffffffffffffffff168273ffffffffffffffffffffffffffffffffffffffff161415610cf9576040517f08c379a0000000000000000000000000000000000000000000000000000000008152600401610cf090613d64565b60405180910390fd5b600360008373ffffffffffffffffffffffffffffffffffffffff1673ffffffffffffffffffffffffffffffffffffffff168152602001908152602001600020549050919050565b60096020528060005260406000206000915090505481565b606060018054610d6790614237565b80601f0160208091040260200160405190810160405280929190818152602001828054610d9390614237565b8015610de05780601f10610db557610100808354040283529160200191610de0565b820191906000526020600020905b815481529060010190602001808311610dc357829003601f168201915b5050505050905090565b6008602052806000526040600020600091509050806000015490806001018054610e1390614237565b80601f0160208091040260200160405190810160405280929190818152602001828054610e3f90614237565b8015610e8c5780601f10610e6157610100808354040283529160200191610e8c565b820191906000526020600020905b815481529060010190602001808311610e6f57829003601f168201915b505050505090806002018054610ea190614237565b80601f0160208091040260200160405190810160405280929190818152602001828054610ecd90614237565b8015610f1a5780601f10610eef57610100808354040283529160200191610f1a565b820191906000526020600020905b815481529060010190602001808311610efd57829003601f168201915b5050505050908060030154908060040154908060050154908060060154905087565b610f4e610f47611f65565b8383612360565b5050565b600b806000018054610f6390614237565b80601f0160208091040260200160405190810160405280929190818152602001828054610f8f90614237565b8015610fdc5780601f10610fb157610100808354040283529160200191610fdc565b820191906000526020600020905b815481529060010190602001808311610fbf57829003601f168201915b505050505090806001018054610ff190614237565b80601f016020809104026020016040519081016040528092919081815260200182805461101d90614237565b801561106a5780601f1061103f5761010080835404028352916020019161106a565b820191906000526020600020905b81548152906001019060200180831161104d57829003601f168201915b5050505050908060020154908060030154908060040154905085565b611097611091611f65565b83612026565b6110d6576040517f08c379a00000000000000000000000000000000000000000000000000000000081526004016110cd90613e64565b60405180910390fd5b6110e2848484846124cd565b50505050565b60606007805480602002602001604051908101604052809291908181526020016000905b8282101561129457838290600052602060002090600702016040518060e00160405290816000820154815260200160018201805461114990614237565b80601f016020809104026020016040519081016040528092919081815260200182805461117590614237565b80156111c25780601f10611197576101008083540402835291602001916111c2565b820191906000526020600020905b8154815290600101906020018083116111a557829003601f168201915b505050505081526020016002820180546111db90614237565b80601f016020809104026020016040519081016040528092919081815260200182805461120790614237565b80156112545780601f1061122957610100808354040283529160200191611254565b820191906000526020600020905b81548152906001019060200180831161123757829003601f168201915b505050505081526020016003820154815260200160048201548152602001600582015481526020016006820154815250508152602001906001019061110c565b50505050905090565b60606000600860008481526020019081526020016000206040518060e0016040529081600082015481526020016001820180546112d990614237565b80601f016020809104026020016040519081016040528092919081815260200182805461130590614237565b80156113525780601f1061132757610100808354040283529160200191611352565b820191906000526020600020905b81548152906001019060200180831161133557829003601f168201915b5050505050815260200160028201805461136b90614237565b80601f016020809104026020016040519081016040528092919081815260200182805461139790614237565b80156113e45780601f106113b9576101008083540402835291602001916113e4565b820191906000526020600020905b8154815290600101906020018083116113c757829003601f168201915b50505050508152602001600382015481526020016004820154815260200160058201548152602001600682015481525050905060006114268260600151612529565b905060006114378360800151612529565b905060006114488460a00151612529565b90506000600a60008660c001518152602001908152602001600020805461146e90614237565b80601f016020809104026020016040519081016040528092919081815260200182805461149a90614237565b80156114e75780601f106114bc576101008083540402835291602001916114e7565b820191906000526020600020905b8154815290600101906020018083116114ca57829003601f168201915b50505050509050600061153486602001516115018a612529565b886040015188888888604051602001611520979695949392919061394c565b6040516020818303038152906040526126d6565b90506000816040516020016115499190613a09565b604051602081830303815290604052905080975050505050505050919050565b6000600960003373ffffffffffffffffffffffffffffffffffffffff1673ffffffffffffffffffffffffffffffffffffffff168152602001908152602001600020549050600060086000838152602001908152602001600020905061167c6040518060600160405280603c8152602001614b7d603c91398260010180546115ef90614237565b80601f016020809104026020016040519081016040528092919081815260200182805461161b90614237565b80156116685780601f1061163d57610100808354040283529160200191611668565b820191906000526020600020905b81548152906001019060200180831161164b57829003601f168201915b505050505083600301548460050154612894565b6117546040518060400160405280601b81526020017f426f73732025732068617320257320485020616e642025732041440000000000815250600b60000180546116c590614237565b80601f01602080910402602001604051908101604052809291908181526020018280546116f190614237565b801561173e5780601f106117135761010080835404028352916020019161173e565b820191906000526020600020905b81548152906001019060200180831161172157829003601f168201915b5050505050600b60020154600b60040154612894565b600081600301541161179b576040517f08c379a000000000000000000000000000000000000000000000000000000000815260040161179290613da4565b60405180910390fd5b6000600b60020154116117e3576040517f08c379a00000000000000000000000000000000000000000000000000000000081526004016117da90613de4565b60405180910390fd5b8060050154600b600201541015611804576000600b60020181905550611823565b8060050154600b60020154611819919061414d565b600b600201819055505b600b60040154816003015410156118435760008160030181905550611861565b600b600401548160030154611858919061414d565b81600301819055505b611888604051806060016040528060258152602001614ac260259139600b60020154612936565b6118ae604051806060016040528060288152602001614b27602891398260030154612936565b7f838ab28464562786a6c4ab2311964b82fa60bd9b14aa7e856af1f3f18d41a414600b6002015482600301546040516118e8929190613f60565b60405180910390a15050565b6000600560008473ffffffffffffffffffffffffffffffffffffffff1673ffffffffffffffffffffffffffffffffffffffff16815260200190815260200160002060008373ffffffffffffffffffffffffffffffffffffffff1673ffffffffffffffffffffffffffffffffffffffff16815260200190815260200160002060009054906101000a900460ff16905092915050565b600061199460066129d2565b90506119a033826129e0565b6040518060e00160405280838152602001600784815481106119eb577f4e487b7100000000000000000000000000000000000000000000000000000000600052603260045260246000fd5b90600052602060002090600702016001018054611a0790614237565b80601f0160208091040260200160405190810160405280929190818152602001828054611a3390614237565b8015611a805780601f10611a5557610100808354040283529160200191611a80565b820191906000526020600020905b815481529060010190602001808311611a6357829003601f168201915b5050505050815260200160078481548110611ac4577f4e487b7100000000000000000000000000000000000000000000000000000000600052603260045260246000fd5b90600052602060002090600702016002018054611ae090614237565b80601f0160208091040260200160405190810160405280929190818152602001828054611b0c90614237565b8015611b595780601f10611b2e57610100808354040283529160200191611b59565b820191906000526020600020905b815481529060010190602001808311611b3c57829003601f168201915b5050505050815260200160078481548110611b9d577f4e487b7100000000000000000000000000000000000000000000000000000000600052603260045260246000fd5b906000526020600020906007020160030154815260200160078481548110611bee577f4e487b7100000000000000000000000000000000000000000000000000000000600052603260045260246000fd5b906000526020600020906007020160030154815260200160078481548110611c3f577f4e487b7100000000000000000000000000000000000000000000000000000000600052603260045260246000fd5b906000526020600020906007020160050154815260200160078481548110611c90577f4e487b7100000000000000000000000000000000000000000000000000000000600052603260045260246000fd5b90600052602060002090600702016006015481525060086000838152602001908152602001600020600082015181600001556020820151816001019080519060200190611cde929190612f0a565b506040820151816002019080519060200190611cfb929190612f0a565b50606082015181600301556080820151816004015560a0820151816005015560c08201518160060155905050611d4a6040518060600160405280602e8152602001614b4f602e913982846129fe565b80600960003373ffffffffffffffffffffffffffffffffffffffff1673ffffffffffffffffffffffffffffffffffffffff16815260200190815260200160002081905550611d986006611e79565b7f4bc303fd457a97b4691b9af582ce71868a3d258638c8d4f8c60988a0f0bfb8cd338284604051611dcb93929190613a92565b60405180910390a15050565b611e7384848484604051602401611df19493929190613b28565b6040516020818303038152906040527f8d142cdd000000000000000000000000000000000000000000000000000000007bffffffffffffffffffffffffffffffffffffffffffffffffffffffff19166020820180517bffffffffffffffffffffffffffffffffffffffffffffffffffffffff8381831617835250505050612a9d565b50505050565b6001816000016000828254019250508190555050565b60007f01ffc9a7000000000000000000000000000000000000000000000000000000007bffffffffffffffffffffffffffffffffffffffffffffffffffffffff1916827bffffffffffffffffffffffffffffffffffffffffffffffffffffffff1916149050919050565b60008073ffffffffffffffffffffffffffffffffffffffff166002600084815260200190815260200160002060009054906101000a900473ffffffffffffffffffffffffffffffffffffffff1673ffffffffffffffffffffffffffffffffffffffff1614159050919050565b600033905090565b816004600083815260200190815260200160002060006101000a81548173ffffffffffffffffffffffffffffffffffffffff021916908373ffffffffffffffffffffffffffffffffffffffff160217905550808273ffffffffffffffffffffffffffffffffffffffff16611fe083610bd6565b73ffffffffffffffffffffffffffffffffffffffff167f8c5be1e5ebec7d5bd14f71427d1e84f3dd0314c0f7b2291e5b200ac8c7c3b92560405160405180910390a45050565b600061203182611ef9565b612070576040517f08c379a000000000000000000000000000000000000000000000000000000000815260040161206790613d24565b60405180910390fd5b600061207b83610bd6565b90508073ffffffffffffffffffffffffffffffffffffffff168473ffffffffffffffffffffffffffffffffffffffff1614806120ea57508373ffffffffffffffffffffffffffffffffffffffff166120d284610919565b73ffffffffffffffffffffffffffffffffffffffff16145b806120fb57506120fa81856118f4565b5b91505092915050565b8273ffffffffffffffffffffffffffffffffffffffff1661212482610bd6565b73ffffffffffffffffffffffffffffffffffffffff161461217a576040517f08c379a000000000000000000000000000000000000000000000000000000000815260040161217190613e24565b60405180910390fd5b600073ffffffffffffffffffffffffffffffffffffffff168273ffffffffffffffffffffffffffffffffffffffff1614156121ea576040517f08c379a00000000000000000000000000000000000000000000000000000000081526004016121e190613ce4565b60405180910390fd5b6121f5838383612ac6565b612200600082611f6d565b6001600360008573ffffffffffffffffffffffffffffffffffffffff1673ffffffffffffffffffffffffffffffffffffffff1681526020019081526020016000206000828254612250919061414d565b925050819055506001600360008473ffffffffffffffffffffffffffffffffffffffff1673ffffffffffffffffffffffffffffffffffffffff16815260200190815260200160002060008282546122a7919061406c565b92505081905550816002600083815260200190815260200160002060006101000a81548173ffffffffffffffffffffffffffffffffffffffff021916908373ffffffffffffffffffffffffffffffffffffffff160217905550808273ffffffffffffffffffffffffffffffffffffffff168473ffffffffffffffffffffffffffffffffffffffff167fddf252ad1be2c89b69c2b068fc378daa952ba7f163c4a11628f55a4df523b3ef60405160405180910390a4505050565b8173ffffffffffffffffffffffffffffffffffffffff168373ffffffffffffffffffffffffffffffffffffffff1614156123cf576040517f08c379a00000000000000000000000000000000000000000000000000000000081526004016123c690613d04565b60405180910390fd5b80600560008573ffffffffffffffffffffffffffffffffffffffff1673ffffffffffffffffffffffffffffffffffffffff16815260200190815260200160002060008473ffffffffffffffffffffffffffffffffffffffff1673ffffffffffffffffffffffffffffffffffffffff16815260200190815260200160002060006101000a81548160ff0219169083151502179055508173ffffffffffffffffffffffffffffffffffffffff168373ffffffffffffffffffffffffffffffffffffffff167f17307eab39ab6107e8899845ad3d59bd9653f200f220920489ca2b5937696c31836040516124c09190613aeb565b60405180910390a3505050565b6124d8848484612104565b6124e484848484612acb565b612523576040517f08c379a000000000000000000000000000000000000000000000000000000000815260040161251a90613ca4565b60405180910390fd5b50505050565b60606000821415612571576040518060400160405280600181526020017f300000000000000000000000000000000000000000000000000000000000000081525090506126d1565b600082905060005b600082146125a357808061258c9061429a565b915050600a8261259c91906140c2565b9150612579565b60008167ffffffffffffffff8111156125e5577f4e487b7100000000000000000000000000000000000000000000000000000000600052604160045260246000fd5b6040519080825280601f01601f1916602001820160405280156126175781602001600182028036833780820191505090505b5090505b600085146126ca57600182612630919061414d565b9150600a8561263f91906142e3565b603061264b919061406c565b60f81b818381518110612687577f4e487b7100000000000000000000000000000000000000000000000000000000600052603260045260246000fd5b60200101907effffffffffffffffffffffffffffffffffffffffffffffffffffffffffffff1916908160001a905350600a856126c391906140c2565b945061261b565b8093505050505b919050565b606060008251905060008114156126ff576040518060200160405280600081525091505061288f565b60006003600283612710919061406c565b61271a91906140c2565b600461272691906140f3565b90506000602082612737919061406c565b67ffffffffffffffff811115612776577f4e487b7100000000000000000000000000000000000000000000000000000000600052604160045260246000fd5b6040519080825280601f01601f1916602001820160405280156127a85781602001600182028036833780820191505090505b5090506000604051806060016040528060408152602001614ae7604091399050600181016020830160005b8681101561284c5760038101905062ffffff818a015116603f8160121c168401518060081b905060ff603f83600c1c1686015116810190508060081b905060ff603f8360061c1686015116810190508060081b905060ff603f831686015116810190508060e01b905080845260048401935050506127d3565b506003860660018114612866576002811461287657612881565b613d3d60f01b6002830352612881565b603d60f81b60018303525b508484525050819450505050505b919050565b612930848484846040516024016128ae9493929190613b82565b6040516020818303038152906040527fd5cf17d0000000000000000000000000000000000000000000000000000000007bffffffffffffffffffffffffffffffffffffffffffffffffffffffff19166020820180517bffffffffffffffffffffffffffffffffffffffffffffffffffffffff8381831617835250505050612a9d565b50505050565b6129ce828260405160240161294c929190613c36565b6040516020818303038152906040527f9710a9d0000000000000000000000000000000000000000000000000000000007bffffffffffffffffffffffffffffffffffffffffffffffffffffffff19166020820180517bffffffffffffffffffffffffffffffffffffffffffffffffffffffff8381831617835250505050612a9d565b5050565b600081600001549050919050565b6129fa828260405180602001604052806000815250612c62565b5050565b612a98838383604051602401612a1693929190613c66565b6040516020818303038152906040527f969cdd03000000000000000000000000000000000000000000000000000000007bffffffffffffffffffffffffffffffffffffffffffffffffffffffff19166020820180517bffffffffffffffffffffffffffffffffffffffffffffffffffffffff8381831617835250505050612a9d565b505050565b60008151905060006a636f6e736f6c652e6c6f679050602083016000808483855afa5050505050565b505050565b6000612aec8473ffffffffffffffffffffffffffffffffffffffff16612cbd565b15612c55578373ffffffffffffffffffffffffffffffffffffffff1663150b7a02612b15611f65565b8786866040518563ffffffff1660e01b8152600401612b379493929190613a46565b602060405180830381600087803b158015612b5157600080fd5b505af1925050508015612b8257506040513d601f19601f82011682018060405250810190612b7f919061324e565b60015b612c05573d8060008114612bb2576040519150601f19603f3d011682016040523d82523d6000602084013e612bb7565b606091505b50600081511415612bfd576040517f08c379a0000000000000000000000000000000000000000000000000000000008152600401612bf490613ca4565b60405180910390fd5b805181602001fd5b63150b7a0260e01b7bffffffffffffffffffffffffffffffffffffffffffffffffffffffff1916817bffffffffffffffffffffffffffffffffffffffffffffffffffffffff191614915050612c5a565b600190505b949350505050565b612c6c8383612cd0565b612c796000848484612acb565b612cb8576040517f08c379a0000000000000000000000000000000000000000000000000000000008152600401612caf90613ca4565b60405180910390fd5b505050565b600080823b905060008111915050919050565b600073ffffffffffffffffffffffffffffffffffffffff168273ffffffffffffffffffffffffffffffffffffffff161415612d40576040517f08c379a0000000000000000000000000000000000000000000000000000000008152600401612d3790613dc4565b60405180910390fd5b612d4981611ef9565b15612d89576040517f08c379a0000000000000000000000000000000000000000000000000000000008152600401612d8090613cc4565b60405180910390fd5b612d9560008383612ac6565b6001600360008473ffffffffffffffffffffffffffffffffffffffff1673ffffffffffffffffffffffffffffffffffffffff1681526020019081526020016000206000828254612de5919061406c565b92505081905550816002600083815260200190815260200160002060006101000a81548173ffffffffffffffffffffffffffffffffffffffff021916908373ffffffffffffffffffffffffffffffffffffffff160217905550808273ffffffffffffffffffffffffffffffffffffffff16600073ffffffffffffffffffffffffffffffffffffffff167fddf252ad1be2c89b69c2b068fc378daa952ba7f163c4a11628f55a4df523b3ef60405160405180910390a45050565b6040518060e00160405280600081526020016060815260200160608152602001600081526020016000815260200160008152602001600081525090565b6040518060a0016040528060608152602001606081526020016000815260200160008152602001600081525090565b828054612f1690614237565b90600052602060002090601f016020900481019282612f385760008555612f7f565b82601f10612f5157805160ff1916838001178555612f7f565b82800160010185558215612f7f579182015b82811115612f7e578251825591602001919060010190612f63565b5b509050612f8c9190612f90565b5090565b5b80821115612fa9576000816000905550600101612f91565b5090565b6000612fc0612fbb84613fae565b613f89565b905082815260208101848484011115612fd857600080fd5b612fe38482856141f5565b509392505050565b600081359050612ffa81614a65565b92915050565b60008135905061300f81614a7c565b92915050565b60008135905061302481614a93565b92915050565b60008151905061303981614a93565b92915050565b600082601f83011261305057600080fd5b8135613060848260208601612fad565b91505092915050565b60008135905061307881614aaa565b92915050565b60006020828403121561309057600080fd5b600061309e84828501612feb565b91505092915050565b600080604083850312156130ba57600080fd5b60006130c885828601612feb565b92505060206130d985828601612feb565b9150509250929050565b6000806000606084860312156130f857600080fd5b600061310686828701612feb565b935050602061311786828701612feb565b925050604061312886828701613069565b9150509250925092565b6000806000806080858703121561314857600080fd5b600061315687828801612feb565b945050602061316787828801612feb565b935050604061317887828801613069565b925050606085013567ffffffffffffffff81111561319557600080fd5b6131a18782880161303f565b91505092959194509250565b600080604083850312156131c057600080fd5b60006131ce85828601612feb565b92505060206131df85828601613000565b9150509250929050565b600080604083850312156131fc57600080fd5b600061320a85828601612feb565b925050602061321b85828601613069565b9150509250929050565b60006020828403121561323757600080fd5b600061324584828501613015565b91505092915050565b60006020828403121561326057600080fd5b600061326e8482850161302a565b91505092915050565b60006020828403121561328957600080fd5b600061329784828501613069565b91505092915050565b60006132ac83836137e8565b905092915050565b6132bd81614181565b82525050565b60006132ce82613fef565b6132d8818561401d565b9350836020820285016132ea85613fdf565b8060005b85811015613326578484038952815161330785826132a0565b945061331283614010565b925060208a019950506001810190506132ee565b50829750879550505050505092915050565b61334181614193565b82525050565b600061335282613ffa565b61335c818561402e565b935061336c818560208601614204565b613375816143d0565b840191505092915050565b600061338b82614005565b613395818561403f565b93506133a5818560208601614204565b6133ae816143d0565b840191505092915050565b60006133c482614005565b6133ce8185614050565b93506133de818560208601614204565b6133e7816143d0565b840191505092915050565b60006133fd82614005565b6134078185614061565b9350613417818560208601614204565b80840191505092915050565b6000613430600b83614061565b915061343b826143e1565b600b82019050919050565b6000613453603283614050565b915061345e8261440a565b604082019050919050565b6000613476601c83614050565b915061348182614459565b602082019050919050565b6000613499600e83614061565b91506134a482614482565b600e82019050919050565b60006134bc602483614050565b91506134c7826144ab565b604082019050919050565b60006134df601983614050565b91506134ea826144fa565b602082019050919050565b6000613502606183614061565b915061350d82614523565b606182019050919050565b6000613525602c83614050565b9150613530826145be565b604082019050919050565b6000613548603883614050565b91506135538261460d565b604082019050919050565b600061356b602a83614050565b91506135768261465c565b604082019050919050565b600061358e602983614050565b9150613599826146ab565b604082019050919050565b60006135b1603c83614061565b91506135bc826146fa565b603c82019050919050565b60006135d4602d83614050565b91506135df82614749565b604082019050919050565b60006135f7602083614050565b915061360282614798565b602082019050919050565b600061361a602a83614050565b9150613625826147c1565b604082019050919050565b600061363d602c83614050565b915061364882614810565b604082019050919050565b6000613660602983614050565b915061366b8261485f565b604082019050919050565b6000613683600a83614061565b915061368e826148ae565b600a82019050919050565b60006136a6603a83614061565b91506136b1826148d7565b603a82019050919050565b60006136c9602183614050565b91506136d482614926565b604082019050919050565b60006136ec601d83614061565b91506136f782614975565b601d82019050919050565b600061370f603183614050565b915061371a8261499e565b604082019050919050565b6000613732602383614061565b915061373d826149ed565b602382019050919050565b6000613755600483614061565b915061376082614a3c565b600482019050919050565b600060a08301600083015184820360008601526137888282613380565b915050602083015184820360208601526137a28282613380565b91505060408301516137b7604086018261392e565b5060608301516137ca606086018261392e565b5060808301516137dd608086018261392e565b508091505092915050565b600060e083016000830151613800600086018261392e565b50602083015184820360208601526138188282613380565b915050604083015184820360408601526138328282613380565b9150506060830151613847606086018261392e565b50608083015161385a608086018261392e565b5060a083015161386d60a086018261392e565b5060c083015161388060c086018261392e565b508091505092915050565b600060e0830160008301516138a3600086018261392e565b50602083015184820360208601526138bb8282613380565b915050604083015184820360408601526138d58282613380565b91505060608301516138ea606086018261392e565b5060808301516138fd608086018261392e565b5060a083015161391060a086018261392e565b5060c083015161392360c086018261392e565b508091505092915050565b613937816141eb565b82525050565b613946816141eb565b82525050565b600061395782613676565b9150613963828a6133f2565b915061396e82613423565b915061397a82896133f2565b9150613985826134f5565b915061399182886133f2565b915061399c826135a4565b91506139a882876133f2565b91506139b38261348c565b91506139bf82866133f2565b91506139ca82613699565b91506139d682856133f2565b91506139e182613725565b91506139ed82846133f2565b91506139f882613748565b915081905098975050505050505050565b6000613a14826136df565b9150613a2082846133f2565b915081905092915050565b6000602082019050613a4060008301846132b4565b92915050565b6000608082019050613a5b60008301876132b4565b613a6860208301866132b4565b613a75604083018561393d565b8181036060830152613a878184613347565b905095945050505050565b6000606082019050613aa760008301866132b4565b613ab4602083018561393d565b613ac1604083018461393d565b949350505050565b60006020820190508181036000830152613ae381846132c3565b905092915050565b6000602082019050613b006000830184613338565b92915050565b60006020820190508181036000830152613b2081846133b9565b905092915050565b60006080820190508181036000830152613b4281876133b9565b90508181036020830152613b5681866133b9565b9050613b65604083018561393d565b8181036060830152613b7781846133b9565b905095945050505050565b60006080820190508181036000830152613b9c81876133b9565b90508181036020830152613bb081866133b9565b9050613bbf604083018561393d565b613bcc606083018461393d565b95945050505050565b600060a0820190508181036000830152613bef81886133b9565b90508181036020830152613c0381876133b9565b9050613c12604083018661393d565b613c1f606083018561393d565b613c2c608083018461393d565b9695505050505050565b60006040820190508181036000830152613c5081856133b9565b9050613c5f602083018461393d565b9392505050565b60006060820190508181036000830152613c8081866133b9565b9050613c8f602083018561393d565b613c9c604083018461393d565b949350505050565b60006020820190508181036000830152613cbd81613446565b9050919050565b60006020820190508181036000830152613cdd81613469565b9050919050565b60006020820190508181036000830152613cfd816134af565b9050919050565b60006020820190508181036000830152613d1d816134d2565b9050919050565b60006020820190508181036000830152613d3d81613518565b9050919050565b60006020820190508181036000830152613d5d8161353b565b9050919050565b60006020820190508181036000830152613d7d8161355e565b9050919050565b60006020820190508181036000830152613d9d81613581565b9050919050565b60006020820190508181036000830152613dbd816135c7565b9050919050565b60006020820190508181036000830152613ddd816135ea565b9050919050565b60006020820190508181036000830152613dfd8161360d565b9050919050565b60006020820190508181036000830152613e1d81613630565b9050919050565b60006020820190508181036000830152613e3d81613653565b9050919050565b60006020820190508181036000830152613e5d816136bc565b9050919050565b60006020820190508181036000830152613e7d81613702565b9050919050565b60006020820190508181036000830152613e9e818461376b565b905092915050565b60006020820190508181036000830152613ec0818461388b565b905092915050565b6000602082019050613edd600083018461393d565b92915050565b600060e082019050613ef8600083018a61393d565b8181036020830152613f0a81896133b9565b90508181036040830152613f1e81886133b9565b9050613f2d606083018761393d565b613f3a608083018661393d565b613f4760a083018561393d565b613f5460c083018461393d565b98975050505050505050565b6000604082019050613f75600083018561393d565b613f82602083018461393d565b9392505050565b6000613f93613fa4565b9050613f9f8282614269565b919050565b6000604051905090565b600067ffffffffffffffff821115613fc957613fc86143a1565b5b613fd2826143d0565b9050602081019050919050565b6000819050602082019050919050565b600081519050919050565b600081519050919050565b600081519050919050565b6000602082019050919050565b600082825260208201905092915050565b600082825260208201905092915050565b600082825260208201905092915050565b600082825260208201905092915050565b600081905092915050565b6000614077826141eb565b9150614082836141eb565b9250827fffffffffffffffffffffffffffffffffffffffffffffffffffffffffffffffff038211156140b7576140b6614314565b5b828201905092915050565b60006140cd826141eb565b91506140d8836141eb565b9250826140e8576140e7614343565b5b828204905092915050565b60006140fe826141eb565b9150614109836141eb565b9250817fffffffffffffffffffffffffffffffffffffffffffffffffffffffffffffffff048311821515161561414257614141614314565b5b828202905092915050565b6000614158826141eb565b9150614163836141eb565b92508282101561417657614175614314565b5b828203905092915050565b600061418c826141cb565b9050919050565b60008115159050919050565b60007fffffffff0000000000000000000000000000000000000000000000000000000082169050919050565b600073ffffffffffffffffffffffffffffffffffffffff82169050919050565b6000819050919050565b82818337600083830152505050565b60005b83811015614222578082015181840152602081019050614207565b83811115614231576000848401525b50505050565b6000600282049050600182168061424f57607f821691505b6020821081141561426357614262614372565b5b50919050565b614272826143d0565b810181811067ffffffffffffffff82111715614291576142906143a1565b5b80604052505050565b60006142a5826141eb565b91507fffffffffffffffffffffffffffffffffffffffffffffffffffffffffffffffff8214156142d8576142d7614314565b5b600182019050919050565b60006142ee826141eb565b91506142f9836141eb565b92508261430957614308614343565b5b828206905092915050565b7f4e487b7100000000000000000000000000000000000000000000000000000000600052601160045260246000fd5b7f4e487b7100000000000000000000000000000000000000000000000000000000600052601260045260246000fd5b7f4e487b7100000000000000000000000000000000000000000000000000000000600052602260045260246000fd5b7f4e487b7100000000000000000000000000000000000000000000000000000000600052604160045260246000fd5b6000601f19601f8301169050919050565b7f202d2d204e465420233a20000000000000000000000000000000000000000000600082015250565b7f4552433732313a207472616e7366657220746f206e6f6e20455243373231526560008201527f63656976657220696d706c656d656e7465720000000000000000000000000000602082015250565b7f4552433732313a20746f6b656e20616c7265616479206d696e74656400000000600082015250565b7f2c20226d61785f76616c7565223a000000000000000000000000000000000000600082015250565b7f4552433732313a207472616e7366657220746f20746865207a65726f2061646460008201527f7265737300000000000000000000000000000000000000000000000000000000602082015250565b7f4552433732313a20617070726f766520746f2063616c6c657200000000000000600082015250565b7f222c20226465736372697074696f6e223a20225468697320697320616e204e4660008201527f542074686174206c6574732070656f706c6520706c617920696e20746865206760208201527f616d65204d657461766572736520536c6179657221222c2022696d616765223a60408201527f2200000000000000000000000000000000000000000000000000000000000000606082015250565b7f4552433732313a206f70657261746f7220717565727920666f72206e6f6e657860008201527f697374656e7420746f6b656e0000000000000000000000000000000000000000602082015250565b7f4552433732313a20617070726f76652063616c6c6572206973206e6f74206f7760008201527f6e6572206e6f7220617070726f76656420666f7220616c6c0000000000000000602082015250565b7f4552433732313a2062616c616e636520717565727920666f7220746865207a6560008201527f726f206164647265737300000000000000000000000000000000000000000000602082015250565b7f4552433732313a206f776e657220717565727920666f72206e6f6e657869737460008201527f656e7420746f6b656e0000000000000000000000000000000000000000000000602082015250565b7f222c202261747472696275746573223a205b7b202274726169745f747970652260008201527f3a20224865616c746820506f696e7473222c202276616c7565223a2000000000602082015250565b7f4572726f723a20636861726163746572206d757374206861766520485020746f60008201527f2061747461636b20626f73732e00000000000000000000000000000000000000602082015250565b7f4552433732313a206d696e7420746f20746865207a65726f2061646472657373600082015250565b7f4572726f723a20626f7373206d757374206861766520485020746f206174746160008201527f636b20706c617965722e00000000000000000000000000000000000000000000602082015250565b7f4552433732313a20617070726f76656420717565727920666f72206e6f6e657860008201527f697374656e7420746f6b656e0000000000000000000000000000000000000000602082015250565b7f4552433732313a207472616e73666572206f6620746f6b656e2074686174206960008201527f73206e6f74206f776e0000000000000000000000000000000000000000000000602082015250565b7f7b226e616d65223a202200000000000000000000000000000000000000000000600082015250565b7f7d2c202020202020202020202020202020207b2274726169745f74797065223a60008201527f202241747461636b2044616d616765222c202276616c7565223a000000000000602082015250565b7f4552433732313a20617070726f76616c20746f2063757272656e74206f776e6560008201527f7200000000000000000000000000000000000000000000000000000000000000602082015250565b7f646174613a6170706c69636174696f6e2f6a736f6e3b6261736536342c000000600082015250565b7f4552433732313a207472616e736665722063616c6c6572206973206e6f74206f60008201527f776e6572206e6f7220617070726f766564000000000000000000000000000000602082015250565b7f7d2c7b2274726169745f74797065223a20224c6576656c222c202276616c756560008201527f223a220000000000000000000000000000000000000000000000000000000000602082015250565b7f227d5d7d00000000000000000000000000000000000000000000000000000000600082015250565b614a6e81614181565b8114614a7957600080fd5b50565b614a8581614193565b8114614a9057600080fd5b50565b614a9c8161419f565b8114614aa757600080fd5b50565b614ab3816141eb565b8114614abe57600080fd5b5056fe506c617965722061747461636b656420626f73732e204e657720626f73732068703a2025734142434445464748494a4b4c4d4e4f505152535455565758595a6162636465666768696a6b6c6d6e6f707172737475767778797a303132333435363738392b2f426f73732061747461636b656420706c617965722e204e657720706c617965722068703a2025730a4d696e746564204e465420772f20746f6b656e496420257320616e6420636861726163746572496e6465782025730a506c6179657220772f206368617261637465722025732061626f757420746f2061747461636b2e2048617320257320485020616e64202573204144a2646970667358221220a64d2f0d50961cc7b29623409778d2f97c4335a41e1317a3104633aef027bf8164736f6c63430008040033446f6e6520696e697469616c697a696e6720257320772f2048502025732c20696d67202573446f6e6520696e697469616c697a696e6720626f737320257320772f2048502025732c20696d67202573",
  "linkReferences": {},
  "deployedLinkReferences": {}
}